{
  "contractName": "BANK",
  "abi": [
    {
      "constant": false,
      "inputs": [],
      "name": "bank",
      "outputs": [],
      "payable": true,
      "stateMutability": "payable",
      "type": "function"
    },
    {
      "constant": false,
      "inputs": [],
      "name": "gift_",
      "outputs": [],
      "payable": false,
      "stateMutability": "nonpayable",
      "type": "function"
    }
  ],
  "bytecode": "0x608060405234801561001057600080fd5b5060f78061001f6000396000f3006080604052600436106049576000357c0100000000000000000000000000000000000000000000000000000000900463ffffffff16806352d7f81814604e57806376cdb03b146062575b600080fd5b348015605957600080fd5b506060606a565b005b606860c9565b005b3373ffffffffffffffffffffffffffffffffffffffff166108fc3073ffffffffffffffffffffffffffffffffffffffff16319081150290604051600060405180830381858888f1935050505015801560c6573d6000803e3d6000fd5b50565b5600a165627a7a723058201e5101c683e74363e1d0f071d2a25e82df1cb201ef6dd87b74c20105889756b80029",
  "source": "// SPDX-License-Identifier: MIT\npragma solidity >=0.4.22 <0.9.0;\n\ncontract BANK{\n  address owner; //함수를 호출한 사람\n  uint withamount; //전달받은 eth 값\n\n  function bank() public payable{\n\n  }\n\n  function gift_() public{\n    //require(msg.value == 5 ether, \"msg.value not 5 ether\"); \n    msg.sender.transfer(this.balance);\n    \n  }\n\n}\n\n/*contract gift_ is wallet{\n  function gift() public{\n    msg.sender.transfer(2 ether);\n  }\n  //돈을 받는 곳 payable\n}*/\n\n/*  function bank() public payable{\n    owner = msg.sender;\n    withamount = msg.value;\n    \n    if(withamount >= 3 ether){\n      gift(); //함수호출인데, call을 사용한게 아님\n    }\n  }\n  */",
  "sourcePath": "C:/Users/vlfgh/OneDrive/Desktop/STL/03. swc_research/swc104_gift_test/contracts/swc104_gift.sol",
  "compiler": {
    "name": "solc",
    "version": "0.4.24+commit.e67f0147.Emscripten.clang"
  },
  "schemaVersion": "3.4.1",
  "updatedAt": "2021-08-07T07:27:14.941Z",
  "devdoc": {
    "methods": {}
  },
  "userdoc": {
    "methods": {}
  }
}