{
  "contractName": "call_test_contract",
  "abi": [
    {
      "constant": false,
      "inputs": [],
      "name": "call_test",
      "outputs": [
        {
          "name": "myString",
          "type": "string"
        }
      ],
      "payable": false,
      "stateMutability": "nonpayable",
      "type": "function"
    }
  ],
  "bytecode": "0x608060405234801561001057600080fd5b5061013f806100206000396000f300608060405260043610610041576000357c0100000000000000000000000000000000000000000000000000000000900463ffffffff1680636b889cce14610046575b600080fd5b34801561005257600080fd5b5061005b6100d6565b6040518080602001828103825283818151815260200191508051906020019080838360005b8381101561009b578082015181840152602081019050610080565b50505050905090810190601f1680156100c85780820380516001836020036101000a031916815260200191505b509250505060405180910390f35b60606040805190810160405280600781526020017f48656c6c6f2125000000000000000000000000000000000000000000000000008152509050905600a165627a7a72305820eeffc73bc351b0116a342d693d5bd939b0985c23f7d786cec67815943e7257490029",
  "source": "// SPDX-License-Identifier: MIT\r\npragma solidity >=0.4.22 <0.9.0;\r\n\r\ncontract call_test_contract {\r\n    function call_test() returns(string myString) {\r\n        return \"Hello!%\";\r\n    } \r\n}\r\n\r\ncontract call_contract{\r\n    function call_another_contract(address callee) { //함수 호출에 실패하여, 예외가 발생해도 반환 값이나 예외 처리가 없어 에러가 발생했는지 알 수 없음\r\n    callee.call();\r\n    }\r\n}",
  "sourcePath": "C:/Users/vlfgh/OneDrive/Desktop/STL/03. swc_research/swc104_gift_test/contracts/call_test.sol",
  "compiler": {
    "name": "solc",
    "version": "0.4.24+commit.e67f0147.Emscripten.clang"
  },
  "schemaVersion": "3.4.1",
  "updatedAt": "2021-08-07T07:27:18.835Z",
  "networkType": "ethereum",
  "devdoc": {
    "methods": {}
  },
  "userdoc": {
    "methods": {}
  }
}