{
  "contractName": "call_contract",
  "abi": [
    {
      "constant": false,
      "inputs": [
        {
          "name": "callee",
          "type": "address"
        }
      ],
      "name": "call_another_contract",
      "outputs": [],
      "payable": false,
      "stateMutability": "nonpayable",
      "type": "function"
    }
  ],
  "bytecode": "0x608060405234801561001057600080fd5b5060df8061001f6000396000f300608060405260043610603f576000357c0100000000000000000000000000000000000000000000000000000000900463ffffffff1680631bc25274146044575b600080fd5b348015604f57600080fd5b506082600480360381019080803573ffffffffffffffffffffffffffffffffffffffff1690602001909291905050506084565b005b8073ffffffffffffffffffffffffffffffffffffffff166040516000604051808303816000865af191505050505600a165627a7a723058209e99b02d43b45a5d99c60d7335cec53b9e9d7773f143bdff69dbb1efcadf71460029",
  "source": "// SPDX-License-Identifier: MIT\r\npragma solidity >=0.4.22 <0.9.0;\r\n\r\ncontract call_test_contract {\r\n    function call_test() returns(string myString) {\r\n        return \"Hello!%\";\r\n    } \r\n}\r\n\r\ncontract call_contract{\r\n    function call_another_contract(address callee) { //함수 호출에 실패하여, 예외가 발생해도 반환 값이나 예외 처리가 없어 에러가 발생했는지 알 수 없음\r\n    callee.call();\r\n    }\r\n}",
  "sourcePath": "C:/Users/vlfgh/OneDrive/Desktop/STL/03. swc_research/swc104_gift_test/contracts/call_test.sol",
  "compiler": {
    "name": "solc",
    "version": "0.4.24+commit.e67f0147.Emscripten.clang"
  },
  "schemaVersion": "3.4.1",
  "updatedAt": "2021-08-07T07:27:18.839Z",
  "networkType": "ethereum",
  "devdoc": {
    "methods": {}
  },
  "userdoc": {
    "methods": {}
  }
}