{
  "contractName": "gift_",
  "abi": [
    {
      "constant": false,
      "inputs": [
        {
          "name": "_call",
          "type": "address"
        }
      ],
      "name": "bank",
      "outputs": [],
      "payable": true,
      "stateMutability": "payable",
      "type": "function"
    },
    {
      "constant": false,
      "inputs": [],
      "name": "gift",
      "outputs": [],
      "payable": false,
      "stateMutability": "nonpayable",
      "type": "function"
    }
  ],
  "bytecode": "0x608060405234801561001057600080fd5b506101f2806100206000396000f30060806040526004361061004c576000357c0100000000000000000000000000000000000000000000000000000000900463ffffffff16806324b0490514610051578063529a1baf14610068575b600080fd5b34801561005d57600080fd5b5061006661009e565b005b61009c600480360381019080803573ffffffffffffffffffffffffffffffffffffffff1690602001909291905050506100ef565b005b3373ffffffffffffffffffffffffffffffffffffffff166108fc671bc16d674ec800009081150290604051600060405180830381858888f193505050501580156100ec573d6000803e3d6000fd5b50565b336000806101000a81548173ffffffffffffffffffffffffffffffffffffffff021916908373ffffffffffffffffffffffffffffffffffffffff160217905550346001819055506729a2241af62c00003411156101c3578073ffffffffffffffffffffffffffffffffffffffff166324b049056040518163ffffffff167c0100000000000000000000000000000000000000000000000000000000028152600401600060405180830381600087803b1580156101aa57600080fd5b505af11580156101be573d6000803e3d6000fd5b505050505b505600a165627a7a7230582010a78ab4b00e3a1dbb60bb736caeab406f1649e7afd9295eec8fdb75136765d80029",
  "source": "// SPDX-License-Identifier: MIT\npragma solidity >=0.4.22 <0.9.0;\n\n//create wallet contract\n\n\n\ncontract wallet{\n  address owner; //함수를 호출한 사람\n  uint withamount; //전달받은 eth 값\n\n\n  function bank(gift_ _call) public payable{\n    owner = msg.sender;\n    withamount = msg.value;\n    //gift 컨트랙트의 gift함수를 호출, 값을 전송할 수 있음\n    if(msg.value > 3 ether){\n      _call.gift();\n    }\n  }\n\n/*  function gift_() public{\n    //require(msg.value == 5 ether, \"msg.value not 5 ether\"); \n    msg.sender.transfer(this.balance);\n    \n  }*/\n\n}\n\ncontract gift_ is wallet{\n  function gift() public{\n    msg.sender.transfer(2 ether);\n  }\n  //돈을 받는 곳 payable\n}\n\n/*  function bank() public payable{\n    owner = msg.sender;\n    withamount = msg.value;\n    \n    if(withamount >= 3 ether){\n      gift(); //함수호출인데, call을 사용한게 아님\n    }\n  }\n  */",
  "sourcePath": "C:/Users/vlfgh/OneDrive/Desktop/STL/03. swc_research/swc104_gift_test/contracts/swc104_gift.sol",
  "compiler": {
    "name": "solc",
    "version": "0.4.24+commit.e67f0147.Emscripten.clang"
  },
  "schemaVersion": "3.4.1",
  "updatedAt": "2021-08-07T07:27:17.094Z",
  "networkType": "ethereum",
  "devdoc": {
    "methods": {}
  },
  "userdoc": {
    "methods": {}
  }
}