{
  "contractName": "mortal",
  "abi": [
    {
      "constant": false,
      "inputs": [],
      "name": "dsetroy",
      "outputs": [],
      "payable": false,
      "stateMutability": "nonpayable",
      "type": "function"
    }
  ],
  "bytecode": "0x6080604052336000806101000a81548173ffffffffffffffffffffffffffffffffffffffff021916908373ffffffffffffffffffffffffffffffffffffffff160217905550610187806100536000396000f300608060405260043610610041576000357c0100000000000000000000000000000000000000000000000000000000900463ffffffff168063ddf99eff14610046575b600080fd5b34801561005257600080fd5b5061005b61005d565b005b6000809054906101000a900473ffffffffffffffffffffffffffffffffffffffff1673ffffffffffffffffffffffffffffffffffffffff163373ffffffffffffffffffffffffffffffffffffffff16141515610121576040517f08c379a000000000000000000000000000000000000000000000000000000000815260040180806020018281038252600f8152602001807f6f6e6c79206f776e65722063616c6c000000000000000000000000000000000081525060200191505060405180910390fd5b6000809054906101000a900473ffffffffffffffffffffffffffffffffffffffff1673ffffffffffffffffffffffffffffffffffffffff16ff00a165627a7a723058204b3fb7da88daf367d1049951861c89e03a9e1b39681062c141aee04f6f650b040029",
  "source": "// SPDX-License-Identifier: MIT\r\npragma solidity >=0.4.22 < 0.9.0;\r\n\r\n//컨트랙트의 생성자 설정 및 주소를 저장\r\ncontract owned{\r\n    address owner;\r\n\r\n    //생성자를 owner로 설정, 한 번만 실행됨\r\n    constructor(){\r\n        owner = msg.sender;\r\n    }\r\n\r\n    //owner, msg.sender가 동일해야 함\r\n    //함수식별자\r\n    modifier onlyowner(){\r\n        require(msg.sender == owner, \"only owner call\");\r\n        _; //구문 표시자, \r\n    }\r\n}\r\n\r\n//owned를 상속\r\n//컨트랙트를 소멸, 남은 eth를 받아가기 위함\r\ncontract mortal is owned(){\r\n    function dsetroy() public onlyowner{\r\n        selfdestruct(owner);\r\n    }\r\n}\r\n\r\n//mortal을 상속\r\ncontract faucet is mortal{ //상속을 사용 mortal이 부모\r\n    //address owner 생성자가 있어서 사용하지 않아도 됨, 상속하고 있기도 함\r\n    event withdraw_(address indexed to, uint amount); //event를 선언\r\n    event deposit_(address indexed from, uint amount);\r\n\r\n\r\n    //함수 호출자에게 이더를 전송\r\n    function withdraw(uint withdraw_amount) public { //이더 값을 출금하는 함수, 1이더 이하만 출금하도록 예외처리\r\n        require(withdraw_amount<= 1 ether);\r\n        require(this.balance >= withdraw_amount,\r\n            \"withdraw request\");\r\n        msg.sender.transfer(withdraw_amount);\r\n        emit withdraw_(msg.sender, withdraw_amount); //이벤트 값\r\n    }\r\n\r\n    //값을전송하는 부분\r\n    function () public payable{\r\n        emit deposit_(msg.sender, msg.value);\r\n    }\r\n}\r\n\r\ncontract call_faucet is mortal{\r\n    function faucet_call(address _faucet){ //이게 함수를 호출하는 것 같은데, faucet 컨트랙트의 withdraw 함수를 호출한다는 거같은데?\r\n        _faucet.call(\"withdraw\",0.5 ether); //withdraw 함수의 첫 번째 인자에 값을 넣는다. 그리고 호출한다?\r\n    }\r\n}\r\n\r\n\r\n/*notepad\r\ntx.origin = 트랜잭션의 원래 EOA 주소, 안전하지 않은 객체\r\naddress.send() = 예외 발생 대신, false를 반환함, 반환 값을 항상 확인해야함\r\n\r\n//함수 변경자, 함수에 적용할 조건 생성에 사용\r\nmodifier onlyowner{\r\n    require(msg.sender == owner);\r\n    _; \r\n}\r\n\r\n\r\n\r\n\r\n\r\n\r\n\r\n\r\n\r\n*/",
  "sourcePath": "C:/Users/vlfgh/OneDrive/Desktop/STL/03. swc_research/swc104_gift_test/contracts/swc104_master.sol",
  "compiler": {
    "name": "solc",
    "version": "0.4.24+commit.e67f0147.Emscripten.clang"
  },
  "schemaVersion": "3.4.1",
  "updatedAt": "2021-08-07T07:27:22.165Z",
  "networkType": "ethereum",
  "devdoc": {
    "methods": {}
  },
  "userdoc": {
    "methods": {}
  }
}