{
  "contractName": "MyContract",
  "abi": [
    {
      "constant": false,
      "inputs": [],
      "name": "call_test",
      "outputs": [
        {
          "name": "myString",
          "type": "string"
        }
      ],
      "payable": false,
      "stateMutability": "nonpayable",
      "type": "function"
    },
    {
      "constant": false,
      "inputs": [],
      "name": "call_test_notreturn",
      "outputs": [
        {
          "name": "myString",
          "type": "string"
        }
      ],
      "payable": false,
      "stateMutability": "nonpayable",
      "type": "function"
    }
  ],
  "bytecode": "0x608060405234801561001057600080fd5b506101df806100206000396000f30060806040526004361061004c576000357c0100000000000000000000000000000000000000000000000000000000900463ffffffff1680636b889cce14610051578063c55e4c54146100e1575b600080fd5b34801561005d57600080fd5b50610066610171565b6040518080602001828103825283818151815260200191508051906020019080838360005b838110156100a657808201518184015260208101905061008b565b50505050905090810190601f1680156100d35780820380516001836020036101000a031916815260200191505b509250505060405180910390f35b3480156100ed57600080fd5b506100f66101ae565b6040518080602001828103825283818151815260200191508051906020019080838360005b8381101561013657808201518184015260208101905061011b565b50505050905090810190601f1680156101635780820380516001836020036101000a031916815260200191505b509250505060405180910390f35b60606040805190810160405280600781526020017f48656c6c6f212500000000000000000000000000000000000000000000000000815250905090565b6060905600a165627a7a72305820b117746a06808d5bbaf809621591bc23c79e1db103814d8a12a26098dd786f950029",
  "source": "// SPDX-License-Identifier: MIT\r\npragma solidity >=0.4.22 <0.9.0;\r\n\r\ncontract MyContract {\r\n    function call_test() returns(string myString) {\r\n        return \"Hello!%\";\r\n    }\r\n\r\n    function call_test_notreturn() returns(string myString) {\r\n    }\r\n}\r\n",
  "sourcePath": "C:/Users/vlfgh/OneDrive/Desktop/STL/03. swc_research/swc104_gift_test/contracts/call_test.sol",
  "compiler": {
    "name": "solc",
    "version": "0.4.24+commit.e67f0147.Emscripten.clang"
  },
  "schemaVersion": "3.4.1",
  "updatedAt": "2021-08-07T05:09:49.082Z",
  "networkType": "ethereum",
  "devdoc": {
    "methods": {}
  },
  "userdoc": {
    "methods": {}
  }
}